:08000000020099C2B1D2B02246
:10000B0002000EC0E0C0F0C083C082C0D075D0002B
:10001B00C000C001C002C003C004C005C006C007B9
:10002B0020B3117F327E0012008220B307D2CD1293
:10003B00000380FED007D006D005D004D003D00239
:10004B00D001D000D0D0D082D083D0F0D0E03275A8
:10005B00CAFF1200A51200B030B20B30CD10C2CDCA
:10006B001200BA02007920CD05D2CD1200037FB861
:10007B007E0B12008280E1EF1F70011E144E600D8B
:10008B000000007D0B7CBEDCFEDDFC80EA22787F6D
:10009B00E4F6D8FD75810802005AC2CDC2B0C2B1D8
:1000AB00D2B20200BA750801D28AD2AFD2AA22C24A
:0400BB00B0D2B122EC
:00000001FF
